{
  "_format": "hh-sol-artifact-1",
  "contractName": "LendingPool",
  "sourceName": "contracts/core/LendingPool.sol",
  "abi": [
    {
      "inputs": [
        {
          "internalType": "address",
          "name": "_collateralToken",
          "type": "address"
        },
        {
          "internalType": "address",
          "name": "_borrowToken",
          "type": "address"
        },
        {
          "internalType": "address",
          "name": "_priceOracle",
          "type": "address"
        },
        {
          "internalType": "address",
          "name": "_treasury",
          "type": "address"
        }
      ],
      "stateMutability": "nonpayable",
      "type": "constructor"
    },
    {
      "anonymous": false,
      "inputs": [
        {
          "indexed": true,
          "internalType": "address",
          "name": "user",
          "type": "address"
        },
        {
          "indexed": false,
          "internalType": "uint256",
          "name": "amount",
          "type": "uint256"
        },
        {
          "indexed": false,
          "internalType": "uint256",
          "name": "collateral",
          "type": "uint256"
        },
        {
          "indexed": false,
          "internalType": "uint256",
          "name": "originationFee",
          "type": "uint256"
        }
      ],
      "name": "Borrow",
      "type": "event"
    },
    {
      "anonymous": false,
      "inputs": [
        {
          "indexed": false,
          "internalType": "uint256",
          "name": "newRate",
          "type": "uint256"
        }
      ],
      "name": "InterestRateUpdate",
      "type": "event"
    },
    {
      "anonymous": false,
      "inputs": [
        {
          "indexed": true,
          "internalType": "address",
          "name": "borrower",
          "type": "address"
        },
        {
          "indexed": true,
          "internalType": "address",
          "name": "liquidator",
          "type": "address"
        },
        {
          "indexed": false,
          "internalType": "uint256",
          "name": "debtCovered",
          "type": "uint256"
        },
        {
          "indexed": false,
          "internalType": "uint256",
          "name": "collateralSeized",
          "type": "uint256"
        }
      ],
      "name": "Liquidation",
      "type": "event"
    },
    {
      "anonymous": false,
      "inputs": [
        {
          "indexed": true,
          "internalType": "address",
          "name": "previousOwner",
          "type": "address"
        },
        {
          "indexed": true,
          "internalType": "address",
          "name": "newOwner",
          "type": "address"
        }
      ],
      "name": "OwnershipTransferred",
      "type": "event"
    },
    {
      "anonymous": false,
      "inputs": [
        {
          "indexed": false,
          "internalType": "address",
          "name": "account",
          "type": "address"
        }
      ],
      "name": "Paused",
      "type": "event"
    },
    {
      "anonymous": false,
      "inputs": [
        {
          "indexed": true,
          "internalType": "address",
          "name": "user",
          "type": "address"
        },
        {
          "indexed": false,
          "internalType": "uint256",
          "name": "amount",
          "type": "uint256"
        },
        {
          "indexed": false,
          "internalType": "uint256",
          "name": "collateral",
          "type": "uint256"
        }
      ],
      "name": "Repay",
      "type": "event"
    },
    {
      "anonymous": false,
      "inputs": [
        {
          "indexed": true,
          "internalType": "address",
          "name": "user",
          "type": "address"
        },
        {
          "indexed": false,
          "internalType": "uint256",
          "name": "amount",
          "type": "uint256"
        },
        {
          "indexed": false,
          "internalType": "uint256",
          "name": "shares",
          "type": "uint256"
        }
      ],
      "name": "Supply",
      "type": "event"
    },
    {
      "anonymous": false,
      "inputs": [
        {
          "indexed": false,
          "internalType": "address",
          "name": "account",
          "type": "address"
        }
      ],
      "name": "Unpaused",
      "type": "event"
    },
    {
      "anonymous": false,
      "inputs": [
        {
          "indexed": true,
          "internalType": "address",
          "name": "user",
          "type": "address"
        },
        {
          "indexed": false,
          "internalType": "uint256",
          "name": "shares",
          "type": "uint256"
        },
        {
          "indexed": false,
          "internalType": "uint256",
          "name": "amount",
          "type": "uint256"
        }
      ],
      "name": "Withdraw",
      "type": "event"
    },
    {
      "inputs": [],
      "name": "BASE_RATE",
      "outputs": [
        {
          "internalType": "uint256",
          "name": "",
          "type": "uint256"
        }
      ],
      "stateMutability": "view",
      "type": "function"
    },
    {
      "inputs": [],
      "name": "LIQUIDATION_BONUS",
      "outputs": [
        {
          "internalType": "uint256",
          "name": "",
          "type": "uint256"
        }
      ],
      "stateMutability": "view",
      "type": "function"
    },
    {
      "inputs": [],
      "name": "LIQUIDATION_THRESHOLD",
      "outputs": [
        {
          "internalType": "uint256",
          "name": "",
          "type": "uint256"
        }
      ],
      "stateMutability": "view",
      "type": "function"
    },
    {
      "inputs": [],
      "name": "LTV_RATIO",
      "outputs": [
        {
          "internalType": "uint256",
          "name": "",
          "type": "uint256"
        }
      ],
      "stateMutability": "view",
      "type": "function"
    },
    {
      "inputs": [],
      "name": "MAX_UTILIZATION",
      "outputs": [
        {
          "internalType": "uint256",
          "name": "",
          "type": "uint256"
        }
      ],
      "stateMutability": "view",
      "type": "function"
    },
    {
      "inputs": [],
      "name": "OPTIMAL_UTILIZATION",
      "outputs": [
        {
          "internalType": "uint256",
          "name": "",
          "type": "uint256"
        }
      ],
      "stateMutability": "view",
      "type": "function"
    },
    {
      "inputs": [],
      "name": "PRECISION",
      "outputs": [
        {
          "internalType": "uint256",
          "name": "",
          "type": "uint256"
        }
      ],
      "stateMutability": "view",
      "type": "function"
    },
    {
      "inputs": [],
      "name": "RATE_SLOPE",
      "outputs": [
        {
          "internalType": "uint256",
          "name": "",
          "type": "uint256"
        }
      ],
      "stateMutability": "view",
      "type": "function"
    },
    {
      "inputs": [],
      "name": "SECONDS_PER_YEAR",
      "outputs": [
        {
          "internalType": "uint256",
          "name": "",
          "type": "uint256"
        }
      ],
      "stateMutability": "view",
      "type": "function"
    },
    {
      "inputs": [
        {
          "internalType": "uint256",
          "name": "collateralAmount",
          "type": "uint256"
        },
        {
          "internalType": "uint256",
          "name": "borrowAmount",
          "type": "uint256"
        }
      ],
      "name": "borrow",
      "outputs": [],
      "stateMutability": "nonpayable",
      "type": "function"
    },
    {
      "inputs": [],
      "name": "borrowToken",
      "outputs": [
        {
          "internalType": "contract IERC20",
          "name": "",
          "type": "address"
        }
      ],
      "stateMutability": "view",
      "type": "function"
    },
    {
      "inputs": [],
      "name": "collateralToken",
      "outputs": [
        {
          "internalType": "contract IERC20",
          "name": "",
          "type": "address"
        }
      ],
      "stateMutability": "view",
      "type": "function"
    },
    {
      "inputs": [
        {
          "internalType": "address",
          "name": "user",
          "type": "address"
        }
      ],
      "name": "getUserDebt",
      "outputs": [
        {
          "internalType": "uint256",
          "name": "",
          "type": "uint256"
        }
      ],
      "stateMutability": "view",
      "type": "function"
    },
    {
      "inputs": [
        {
          "internalType": "address",
          "name": "user",
          "type": "address"
        }
      ],
      "name": "isLiquidatable",
      "outputs": [
        {
          "internalType": "bool",
          "name": "",
          "type": "bool"
        }
      ],
      "stateMutability": "view",
      "type": "function"
    },
    {
      "inputs": [
        {
          "internalType": "address",
          "name": "",
          "type": "address"
        }
      ],
      "name": "liquidityShares",
      "outputs": [
        {
          "internalType": "uint256",
          "name": "",
          "type": "uint256"
        }
      ],
      "stateMutability": "view",
      "type": "function"
    },
    {
      "inputs": [],
      "name": "owner",
      "outputs": [
        {
          "internalType": "address",
          "name": "",
          "type": "address"
        }
      ],
      "stateMutability": "view",
      "type": "function"
    },
    {
      "inputs": [],
      "name": "pause",
      "outputs": [],
      "stateMutability": "nonpayable",
      "type": "function"
    },
    {
      "inputs": [],
      "name": "paused",
      "outputs": [
        {
          "internalType": "bool",
          "name": "",
          "type": "bool"
        }
      ],
      "stateMutability": "view",
      "type": "function"
    },
    {
      "inputs": [],
      "name": "poolData",
      "outputs": [
        {
          "internalType": "uint256",
          "name": "totalSupplied",
          "type": "uint256"
        },
        {
          "internalType": "uint256",
          "name": "totalBorrowed",
          "type": "uint256"
        },
        {
          "internalType": "uint256",
          "name": "totalCollateral",
          "type": "uint256"
        },
        {
          "internalType": "uint256",
          "name": "liquidityIndex",
          "type": "uint256"
        },
        {
          "internalType": "uint256",
          "name": "lastUpdateTime",
          "type": "uint256"
        },
        {
          "internalType": "uint256",
          "name": "utilizationRate",
          "type": "uint256"
        },
        {
          "internalType": "uint256",
          "name": "currentInterestRate",
          "type": "uint256"
        }
      ],
      "stateMutability": "view",
      "type": "function"
    },
    {
      "inputs": [],
      "name": "priceOracle",
      "outputs": [
        {
          "internalType": "address",
          "name": "",
          "type": "address"
        }
      ],
      "stateMutability": "view",
      "type": "function"
    },
    {
      "inputs": [],
      "name": "renounceOwnership",
      "outputs": [],
      "stateMutability": "nonpayable",
      "type": "function"
    },
    {
      "inputs": [
        {
          "internalType": "uint256",
          "name": "repayAmount",
          "type": "uint256"
        },
        {
          "internalType": "uint256",
          "name": "withdrawCollateral",
          "type": "uint256"
        }
      ],
      "name": "repay",
      "outputs": [],
      "stateMutability": "nonpayable",
      "type": "function"
    },
    {
      "inputs": [],
      "name": "reserveFactor",
      "outputs": [
        {
          "internalType": "uint256",
          "name": "",
          "type": "uint256"
        }
      ],
      "stateMutability": "view",
      "type": "function"
    },
    {
      "inputs": [
        {
          "internalType": "uint256",
          "name": "amount",
          "type": "uint256"
        }
      ],
      "name": "supply",
      "outputs": [],
      "stateMutability": "nonpayable",
      "type": "function"
    },
    {
      "inputs": [],
      "name": "totalLiquidityShares",
      "outputs": [
        {
          "internalType": "uint256",
          "name": "",
          "type": "uint256"
        }
      ],
      "stateMutability": "view",
      "type": "function"
    },
    {
      "inputs": [
        {
          "internalType": "address",
          "name": "newOwner",
          "type": "address"
        }
      ],
      "name": "transferOwnership",
      "outputs": [],
      "stateMutability": "nonpayable",
      "type": "function"
    },
    {
      "inputs": [],
      "name": "treasury",
      "outputs": [
        {
          "internalType": "address",
          "name": "",
          "type": "address"
        }
      ],
      "stateMutability": "view",
      "type": "function"
    },
    {
      "inputs": [],
      "name": "unpause",
      "outputs": [],
      "stateMutability": "nonpayable",
      "type": "function"
    },
    {
      "inputs": [
        {
          "internalType": "address",
          "name": "",
          "type": "address"
        }
      ],
      "name": "userData",
      "outputs": [
        {
          "internalType": "uint256",
          "name": "collateralAmount",
          "type": "uint256"
        },
        {
          "internalType": "uint256",
          "name": "borrowedAmount",
          "type": "uint256"
        },
        {
          "internalType": "uint256",
          "name": "borrowIndex",
          "type": "uint256"
        },
        {
          "internalType": "uint256",
          "name": "lastUpdateTime",
          "type": "uint256"
        },
        {
          "internalType": "bool",
          "name": "canBeLiquidated",
          "type": "bool"
        }
      ],
      "stateMutability": "view",
      "type": "function"
    }
  ],
  "bytecode": "0x60e06040526103e8600c553480156200001757600080fd5b5060405162001c1838038062001c188339810160408190526200003a9162000274565b60016000556200004a3362000205565b6001805460ff60a01b191690556001600160a01b038416620000b35760405162461bcd60e51b815260206004820152601860248201527f496e76616c696420636f6c6c61746572616c20746f6b656e000000000000000060448201526064015b60405180910390fd5b6001600160a01b0383166200010b5760405162461bcd60e51b815260206004820152601460248201527f496e76616c696420626f72726f7720746f6b656e0000000000000000000000006044820152606401620000aa565b6001600160a01b038216620001635760405162461bcd60e51b815260206004820152601460248201527f496e76616c6964207072696365206f7261636c650000000000000000000000006044820152606401620000aa565b6001600160a01b038116620001ae5760405162461bcd60e51b815260206004820152601060248201526f496e76616c696420747265617375727960801b6044820152606401620000aa565b606093841b6001600160601b031990811660805292841b831660a052921b1660c052600d80546001600160a01b0319166001600160a01b03909216919091179055670de0b6b3a764000060055542600655620002d0565b600180546001600160a01b038381166001600160a01b0319831681179093556040519116919082907f8be0079c531659141344cd1fd0a4f28419497f9722a3daafe3b4186f6b6457e090600090a35050565b80516001600160a01b03811681146200026f57600080fd5b919050565b600080600080608085870312156200028a578384fd5b620002958562000257565b9350620002a56020860162000257565b9250620002b56040860162000257565b9150620002c56060860162000257565b905092959194509250565b60805160601c60a05160601c60c05160601c6118de6200033a6000396000818161022d0152610fc20152600081816102a10152818161072f015281816107670152818161088d0152610b6701526000818161035b015281816106720152610c0e01526118de6000f3fe608060405234801561001057600080fd5b50600436106101cf5760003560e01c8063715018a611610104578063b2016bd4116100a2578063e65896c911610071578063e65896c914610403578063e6a69ab814610416578063f2fde38b14610421578063fee151ae1461043457600080fd5b8063b2016bd414610356578063c89109131461037d578063cf762dfa146103e7578063d8aed145146103f057600080fd5b80638da5cb5b116100de5780638da5cb5b1461031357806390a8ae9b146103245780639db4aa041461032d578063aaf5eb681461034d57600080fd5b8063715018a6146102fa5780638456cb591461030257806387cd5b201461030a57600080fd5b806341910f90116101715780635696b1891161014b5780635696b189146102c35780635c975abb146102cc5780635fc1419d146102de57806361d027b3146102e757600080fd5b806341910f901461028b5780634322b71414610293578063456dc17a1461029c57600080fd5b80632630c12f116101ad5780632630c12f1461022857806335403023146102675780633574d4c41461027a5780633f4ba83a1461028357600080fd5b8063042e02cf146101d45780630ecbcdab146101fc578063124fea4f14610211575b600080fd5b6101e76101e236600461170a565b61048b565b60405190151581526020015b60405180910390f35b61020f61020a366004611788565b61049c565b005b61021a61251c81565b6040519081526020016101f3565b61024f7f000000000000000000000000000000000000000000000000000000000000000081565b6040516001600160a01b0390911681526020016101f3565b61020f610275366004611758565b6107e7565b61021a6101f481565b61020f610955565b61021a60c881565b61021a600c5481565b61024f7f000000000000000000000000000000000000000000000000000000000000000081565b61021a61138881565b600154600160a01b900460ff166101e7565b61021a6103e881565b600d5461024f906001600160a01b031681565b61020f610967565b61020f610979565b61021a600b5481565b6001546001600160a01b031661024f565b61021a611d4c81565b61021a61033b36600461170a565b600a6020526000908152604090205481565b61021a61271081565b61024f7f000000000000000000000000000000000000000000000000000000000000000081565b6103bd61038b36600461170a565b600960205260009081526040902080546001820154600283015460038401546004909401549293919290919060ff1685565b6040805195865260208601949094529284019190915260608301521515608082015260a0016101f3565b61021a611f4081565b61020f6103fe366004611788565b610989565b61021a61041136600461170a565b610c7c565b61021a6301e1338081565b61020f61042f36600461170a565b610c87565b6002546003546004546005546006546007546008546104569695949392919087565b604080519788526020880196909652948601939093526060850191909152608084015260a083015260c082015260e0016101f3565b600061049682610cfd565b92915050565b6104a4610da6565b6104ac610e00565b6000821161050b5760405162461bcd60e51b815260206004820152602160248201527f436f6c6c61746572616c206d7573742062652067726561746572207468616e206044820152600360fc1b60648201526084015b60405180910390fd5b600081116105675760405162461bcd60e51b8152602060048201526024808201527f426f72726f7720616d6f756e74206d75737420626520677265617465722074686044820152630616e20360e41b6064820152608401610502565b61056f610e4d565b6003546002546000916105819161184f565b9050808211156105cc5760405162461bcd60e51b8152602060048201526016602482015275496e73756666696369656e74206c697175696469747960501b6044820152606401610502565b60006105d784610f87565b905060006127106105ea61138884611830565b6105f49190611810565b90508084111561063b5760405162461bcd60e51b8152602060048201526012602482015271131515881c985d1a5bc8195e18d95959195960721b6044820152606401610502565b600061271061064b866064611830565b6106559190611810565b90506000610663828761184f565b905061069a6001600160a01b037f00000000000000000000000000000000000000000000000000000000000000001633308a6110d1565b3360009081526009602052604081208054909189918391906106bd9084906117f8565b92505081905550868160010160008282546106d891906117f8565b909155505060055460028201554260038281019190915580548891906000906107029084906117f8565b90915550506004805489919060009061071c9084906117f8565b9091555061075690506001600160a01b037f0000000000000000000000000000000000000000000000000000000000000000163384611142565b600d54610790906001600160a01b037f00000000000000000000000000000000000000000000000000000000000000008116911685611142565b60408051888152602081018a905290810184905233907f13ed6866d4e1ee6da46f845c46d7e54120883d75c5ea9a2dacc1c4ca8984ab809060600160405180910390a25050505050506107e36001600055565b5050565b6107ef610da6565b6107f7610e00565b600081116108475760405162461bcd60e51b815260206004820152601d60248201527f416d6f756e74206d7573742062652067726561746572207468616e20300000006044820152606401610502565b61084f610e4d565b6000600b5460001415610863575080610880565b600254600b546108739084611830565b61087d9190611810565b90505b6108b56001600160a01b037f0000000000000000000000000000000000000000000000000000000000000000163330856110d1565b81600260000160008282546108ca91906117f8565b9091555050336000908152600a6020526040812080548392906108ee9084906117f8565b9250508190555080600b600082825461090791906117f8565b9091555050604080518381526020810183905233917f9d624b01705090e0c402c84f2bdef9c498399a009cee9a4e08ab004bae447121910160405180910390a2506109526001600055565b50565b61095d611177565b6109656111d1565b565b61096f611177565b6109656000611226565b610981611177565b610965611278565b610991610da6565b600082116109ed5760405162461bcd60e51b815260206004820152602360248201527f526570617920616d6f756e74206d75737420626520677265617465722074686160448201526206e20360ec1b6064820152608401610502565b3360009081526009602052604090206001810154610a405760405162461bcd60e51b815260206004820152601060248201526f4e6f206465627420746f20726570617960801b6044820152606401610502565b610a48610e4d565b6000610a53336112bb565b905080841115610aa55760405162461bcd60e51b815260206004820152601960248201527f526570617920616d6f756e7420657863656564732064656274000000000000006044820152606401610502565b8084108015610ab45750600083115b15610b5a576000610ac5858361184f565b90506000848460000154610ad9919061184f565b90506000610ae682610f87565b90506000612710610af961138884611830565b610b039190611810565b905080841115610b555760405162461bcd60e51b815260206004820152601c60248201527f52656d61696e696e67204c545620726174696f206578636565646564000000006044820152606401610502565b505050505b610b8f6001600160a01b037f0000000000000000000000000000000000000000000000000000000000000000163330876110d1565b610b99848261184f565b6001830155815483908390600090610bb290849061184f565b90915550506005546002830155426003838101919091558054859190600090610bdc90849061184f565b909155505060048054849190600090610bf690849061184f565b90915550508215610c3557610c356001600160a01b037f0000000000000000000000000000000000000000000000000000000000000000163385611142565b604080518581526020810185905233917f77c6871227e5d2dec8dadd5354f78453203e22e669cd0ec4c19d9a8c5edb31d0910160405180910390a250506107e36001600055565b6000610496826112bb565b610c8f611177565b6001600160a01b038116610cf45760405162461bcd60e51b815260206004820152602660248201527f4f776e61626c653a206e6577206f776e657220697320746865207a65726f206160448201526564647265737360d01b6064820152608401610502565b61095281611226565b6001600160a01b0381166000908152600960209081526040808320815160a081018352815481526001820154938101849052600282015492810192909252600381015460608301526004015460ff161515608082015290610d615750600092915050565b6000610d708260000151610f87565b90506000610d7d856112bb565b90506000612710610d90611d4c85611830565b610d9a9190611810565b90911195945050505050565b60026000541415610df95760405162461bcd60e51b815260206004820152601f60248201527f5265656e7472616e637947756172643a207265656e7472616e742063616c6c006044820152606401610502565b6002600055565b600154600160a01b900460ff16156109655760405162461bcd60e51b815260206004820152601060248201526f14185d5cd8589b194e881c185d5cd95960821b6044820152606401610502565b600654600090610e5d904261184f565b905080610e675750565b6000610e7161138e565b905060006301e133808383600260010154610e8c9190611830565b610e969190611830565b610ea09190611810565b60025490915015610ee257600254610ec082670de0b6b3a7640000611830565b610eca9190611810565b60058054600090610edc9084906117f8565b90915550505b8060026001016000828254610ef791906117f8565b909155505060028054829190600090610f119084906117f8565b909155505060088290554260065560025415610f4957600254600354610f3a9061271090611830565b610f449190611810565b610f4c565b60005b6007556040518281527fa946969b090bd9a96215e37ff4eb3e0f6319899a031dcd6a19c37e4af19383b59060200160405180910390a1505050565b60408051600481526024810182526020810180516001600160e01b0316638e15f47360e01b1790529051600091829182916001600160a01b037f00000000000000000000000000000000000000000000000000000000000000001691610fed91906117a9565b600060405180830381855afa9150503d8060008114611028576040519150601f19603f3d011682016040523d82523d6000602084013e61102d565b606091505b5091509150600082801561104357506020825110155b15611063578180602001905181019061105c9190611770565b905061106b565b50640df84758005b600081116110af5760405162461bcd60e51b8152602060048201526011602482015270496e76616c69642042544320707269636560781b6044820152606401610502565b6305f5e1006110be8287611830565b6110c89190611810565b95945050505050565b6040516001600160a01b038085166024830152831660448201526064810182905261113c9085906323b872dd60e01b906084015b60408051601f198184030181529190526020810180516001600160e01b03166001600160e01b031990931692909217909152611458565b50505050565b6040516001600160a01b03831660248201526044810182905261117290849063a9059cbb60e01b90606401611105565b505050565b6001546001600160a01b031633146109655760405162461bcd60e51b815260206004820181905260248201527f4f776e61626c653a2063616c6c6572206973206e6f7420746865206f776e65726044820152606401610502565b6111d961152d565b6001805460ff60a01b191690557f5db9ee0a495bf2e6ff9c91a7834c1ba4fdd244a5e8aa4e537bd38aeae4b073aa335b6040516001600160a01b03909116815260200160405180910390a1565b600180546001600160a01b038381166001600160a01b0319831681179093556040519116919082907f8be0079c531659141344cd1fd0a4f28419497f9722a3daafe3b4186f6b6457e090600090a35050565b611280610e00565b6001805460ff60a01b1916600160a01b1790557f62e78cea01bee320cd4e420270b5ea74000d11b0c9f74754ebdbfc544b05a2586112093390565b6001600160a01b0381166000908152600960209081526040808320815160a081018352815481526001820154938101849052600282015492810192909252600381015460608301526004015460ff16151560808201529061131f5750600092915050565b6000816060015142611331919061184f565b90508061134357506020015192915050565b60006113556301e13380612710611830565b8284602001516103206113689190611830565b6113729190611830565b61137c9190611810565b90508083602001516110c891906117f8565b60025460009061139e575060c890565b600254600354600091906113b59061271090611830565b6113bf9190611810565b9050611f4081116113f457611f406113d9826103e8611830565b6113e39190611810565b6113ee9060c86117f8565b91505090565b6000611402611f408361184f565b90506000611414611f4061271061184f565b905080826114256103e86004611830565b61142f9190611830565b6114399190611810565b6114466103e860c86117f8565b61145091906117f8565b935050505090565b60006114ad826040518060400160405280602081526020017f5361666545524332303a206c6f772d6c6576656c2063616c6c206661696c6564815250856001600160a01b031661157d9092919063ffffffff16565b90508051600014806114ce5750808060200190518101906114ce9190611738565b6111725760405162461bcd60e51b815260206004820152602a60248201527f5361666545524332303a204552433230206f7065726174696f6e20646964206e6044820152691bdd081cdd58d8d9595960b21b6064820152608401610502565b600154600160a01b900460ff166109655760405162461bcd60e51b815260206004820152601460248201527314185d5cd8589b194e881b9bdd081c185d5cd95960621b6044820152606401610502565b606061158c8484600085611594565b949350505050565b6060824710156115f55760405162461bcd60e51b815260206004820152602660248201527f416464726573733a20696e73756666696369656e742062616c616e636520666f6044820152651c8818d85b1b60d21b6064820152608401610502565b600080866001600160a01b0316858760405161161191906117a9565b60006040518083038185875af1925050503d806000811461164e576040519150601f19603f3d011682016040523d82523d6000602084013e611653565b606091505b50915091506116648783838761166f565b979650505050505050565b606083156116db5782516116d4576001600160a01b0385163b6116d45760405162461bcd60e51b815260206004820152601d60248201527f416464726573733a2063616c6c20746f206e6f6e2d636f6e74726163740000006044820152606401610502565b508161158c565b61158c83838151156116f05781518083602001fd5b8060405162461bcd60e51b815260040161050291906117c5565b60006020828403121561171b578081fd5b81356001600160a01b0381168114611731578182fd5b9392505050565b600060208284031215611749578081fd5b81518015158114611731578182fd5b600060208284031215611769578081fd5b5035919050565b600060208284031215611781578081fd5b5051919050565b6000806040838503121561179a578081fd5b50508035926020909101359150565b600082516117bb818460208701611866565b9190910192915050565b60208152600082518060208401526117e4816040850160208701611866565b601f01601f19169190910160400192915050565b6000821982111561180b5761180b611892565b500190565b60008261182b57634e487b7160e01b81526012600452602481fd5b500490565b600081600019048311821515161561184a5761184a611892565b500290565b60008282101561186157611861611892565b500390565b60005b83811015611881578181015183820152602001611869565b8381111561113c5750506000910152565b634e487b7160e01b600052601160045260246000fdfea26469706673582212206bda355566e6a70702285c91efa4bee324c1a973381a887bd6121c31af79b75364736f6c63430008040033",
  "linkReferences": {},
  "deployedLinkReferences": {}
}