{
  "_format": "hh-sol-artifact-1",
  "contractName": "BtcConsumer",
  "sourceName": "contracts/BtcConsumer.sol",
  "abi": [
    {
      "inputs": [
        {
          "internalType": "address",
          "name": "_aggregator",
          "type": "address"
        },
        {
          "internalType": "uint256",
          "name": "_maxAge",
          "type": "uint256"
        }
      ],
      "stateMutability": "nonpayable",
      "type": "constructor"
    },
    {
      "anonymous": false,
      "inputs": [
        {
          "indexed": false,
          "internalType": "int256",
          "name": "rawPrice",
          "type": "int256"
        },
        {
          "indexed": false,
          "internalType": "int256",
          "name": "scaledPrice",
          "type": "int256"
        },
        {
          "indexed": false,
          "internalType": "uint256",
          "name": "timestamp",
          "type": "uint256"
        }
      ],
      "name": "PriceRequested",
      "type": "event"
    },
    {
      "anonymous": false,
      "inputs": [
        {
          "indexed": false,
          "internalType": "uint256",
          "name": "priceAge",
          "type": "uint256"
        },
        {
          "indexed": false,
          "internalType": "uint256",
          "name": "maxAge",
          "type": "uint256"
        }
      ],
      "name": "StalePriceRejected",
      "type": "event"
    },
    {
      "inputs": [],
      "name": "aggregator",
      "outputs": [
        {
          "internalType": "contract SimpleAggregator",
          "name": "",
          "type": "address"
        }
      ],
      "stateMutability": "view",
      "type": "function"
    },
    {
      "inputs": [],
      "name": "getAggregator",
      "outputs": [
        {
          "internalType": "address",
          "name": "",
          "type": "address"
        }
      ],
      "stateMutability": "view",
      "type": "function"
    },
    {
      "inputs": [],
      "name": "getLatestPrice",
      "outputs": [
        {
          "internalType": "int256",
          "name": "price",
          "type": "int256"
        },
        {
          "internalType": "uint256",
          "name": "timestamp",
          "type": "uint256"
        }
      ],
      "stateMutability": "nonpayable",
      "type": "function"
    },
    {
      "inputs": [],
      "name": "getMaxAge",
      "outputs": [
        {
          "internalType": "uint256",
          "name": "",
          "type": "uint256"
        }
      ],
      "stateMutability": "view",
      "type": "function"
    },
    {
      "inputs": [],
      "name": "isStale",
      "outputs": [
        {
          "internalType": "bool",
          "name": "",
          "type": "bool"
        }
      ],
      "stateMutability": "view",
      "type": "function"
    },
    {
      "inputs": [],
      "name": "maxAge",
      "outputs": [
        {
          "internalType": "uint256",
          "name": "",
          "type": "uint256"
        }
      ],
      "stateMutability": "view",
      "type": "function"
    },
    {
      "inputs": [],
      "name": "viewLatestPrice",
      "outputs": [
        {
          "internalType": "int256",
          "name": "price",
          "type": "int256"
        },
        {
          "internalType": "uint256",
          "name": "timestamp",
          "type": "uint256"
        },
        {
          "internalType": "bool",
          "name": "isStale",
          "type": "bool"
        }
      ],
      "stateMutability": "view",
      "type": "function"
    }
  ],
  "bytecode": "0x60c060405234801561001057600080fd5b50604051610bb3380380610bb383398101604081905261002f9161011a565b6001600160a01b0382166100a15760405162461bcd60e51b815260206004820152602e60248201527f427463436f6e73756d65723a2061676772656761746f722063616e6e6f74206260448201526d65207a65726f206164647265737360901b60648201526084015b60405180910390fd5b600081116101045760405162461bcd60e51b815260206004820152602a60248201527f427463436f6e73756d65723a206d6178416765206d75737420626520677265616044820152690746572207468616e20360b41b6064820152608401610098565b6001600160a01b0390911660805260a052610154565b6000806040838503121561012d57600080fd5b82516001600160a01b038116811461014457600080fd5b6020939093015192949293505050565b60805160a0516109fc6101b76000396000818161012b0152818161015e0152818161026d01528181610548015261057701526000818160c901528181610105015281816101ab0152818161029401528181610409015261061201526109fc6000f3fe608060405234801561001057600080fd5b506004361061007d5760003560e01c80633ad59dbc1161005b5780633ad59dbc146101035780633d8d657b14610129578063687043c5146101595780638e15f4731461018057600080fd5b80630f0160d7146100825780631a26f447146100ac578063245a7bfc146100c4575b600080fd5b61008a61019d565b6040805193845260208401929092521515908201526060015b60405180910390f35b6100b461038c565b60405190151581526020016100a3565b6100eb7f000000000000000000000000000000000000000000000000000000000000000081565b6040516001600160a01b0390911681526020016100a3565b7f00000000000000000000000000000000000000000000000000000000000000006100eb565b7f00000000000000000000000000000000000000000000000000000000000000005b6040519081526020016100a3565b61014b7f000000000000000000000000000000000000000000000000000000000000000081565b6101886103fc565b604080519283526020830191909152016100a3565b6000806000806000806000807f00000000000000000000000000000000000000000000000000000000000000006001600160a01b031663feaf968c6040518163ffffffff1660e01b815260040160a060405180830381865afa158015610207573d6000803e3d6000fd5b505050506040513d601f19601f8201168201806040525081019061022b9190610767565b94509450945094509450600084131580610243575081155b1561025b575060009788975060019650945050505050565b600061026783426107cd565b905060007f00000000000000000000000000000000000000000000000000000000000000008211905060007f00000000000000000000000000000000000000000000000000000000000000006001600160a01b031663f0141d846040518163ffffffff1660e01b8152600401602060405180830381865afa1580156102f0573d6000803e3d6000fd5b505050506040513d601f19601f8201168201806040525081019061031491906107e6565b9050600060128260ff16101561034b5761032f826012610810565b61033a90600a61090d565b610344908961091c565b905061037a565b60128260ff16111561037757610362601283610810565b61036d90600a61090d565b610344908961094c565b50865b9b949a50909850929650505050505050565b6000806000306001600160a01b0316630f0160d76040518163ffffffff1660e01b8152600401606060405180830381865afa1580156103cf573d6000803e3d6000fd5b505050506040513d601f19601f820116820180604052508101906103f39190610988565b95945050505050565b60008060008060008060007f00000000000000000000000000000000000000000000000000000000000000006001600160a01b031663feaf968c6040518163ffffffff1660e01b815260040160a060405180830381865afa158015610465573d6000803e3d6000fd5b505050506040513d601f19601f820116820180604052508101906104899190610767565b94509450945094509450600084136104e85760405162461bcd60e51b815260206004820152601f60248201527f427463436f6e73756d65723a20696e76616c696420707269636520646174610060448201526064015b60405180910390fd5b600082116105385760405162461bcd60e51b815260206004820152601e60248201527f427463436f6e73756d65723a20696e76616c69642074696d657374616d70000060448201526064016104df565b600061054483426107cd565b90507f000000000000000000000000000000000000000000000000000000000000000081111561060e57604080518281527f000000000000000000000000000000000000000000000000000000000000000060208201527fef90595f14112b1debf04f9514812befac8f0d70c4c0e39534692e40c3f3b6d2910160405180910390a160405162461bcd60e51b815260206004820181905260248201527f427463436f6e73756d65723a2070726963652064617461206973207374616c6560448201526064016104df565b60007f00000000000000000000000000000000000000000000000000000000000000006001600160a01b031663f0141d846040518163ffffffff1660e01b8152600401602060405180830381865afa15801561066e573d6000803e3d6000fd5b505050506040513d601f19601f8201168201806040525081019061069291906107e6565b9050600060128260ff1610156106c9576106ad826012610810565b6106b890600a61090d565b6106c2908861091c565b90506106f8565b60128260ff1611156106f5576106e0601283610810565b6106eb90600a61090d565b6106c2908861094c565b50855b60408051888152602081018390529081018690527fe8ecb39de9117822f5f62034ed9d5068dc6a0e6a3d326190f4bee4cdca601b5e9060600160405180910390a199939850929650505050505050565b805169ffffffffffffffffffff8116811461076257600080fd5b919050565b600080600080600060a0868803121561077f57600080fd5b61078886610748565b94506020860151935060408601519250606086015191506107ab60808701610748565b90509295509295909350565b634e487b7160e01b600052601160045260246000fd5b818103818111156107e0576107e06107b7565b92915050565b6000602082840312156107f857600080fd5b815160ff8116811461080957600080fd5b9392505050565b60ff82811682821603908111156107e0576107e06107b7565b600181815b8085111561086457816000190482111561084a5761084a6107b7565b8085161561085757918102915b93841c939080029061082e565b509250929050565b60008261087b575060016107e0565b81610888575060006107e0565b816001811461089e57600281146108a8576108c4565b60019150506107e0565b60ff8411156108b9576108b96107b7565b50506001821b6107e0565b5060208310610133831016604e8410600b84101617156108e7575081810a6107e0565b6108f18383610829565b8060001904821115610905576109056107b7565b029392505050565b600061080960ff84168361086c565b80820260008212600160ff1b84141615610938576109386107b7565b81810583148215176107e0576107e06107b7565b60008261096957634e487b7160e01b600052601260045260246000fd5b600160ff1b821460001984141615610983576109836107b7565b500590565b60008060006060848603121561099d57600080fd5b8351925060208401519150604084015180151581146109bb57600080fd5b80915050925092509256fea2646970667358221220406bade1f41b1e1ebf970d35ec2ac3c7ee1ee4fc2cc7030d3325d1b4e50a294964736f6c63430008130033",
  "linkReferences": {},
  "deployedLinkReferences": {}
}