{
  "_format": "hh-sol-artifact-1",
  "contractName": "SimpleAggregator",
  "sourceName": "contracts/SimpleAggregator.sol",
  "abi": [
    {
      "inputs": [
        {
          "internalType": "address",
          "name": "_owner",
          "type": "address"
        },
        {
          "internalType": "uint8",
          "name": "_decimals",
          "type": "uint8"
        }
      ],
      "stateMutability": "nonpayable",
      "type": "constructor"
    },
    {
      "anonymous": false,
      "inputs": [
        {
          "indexed": false,
          "internalType": "int256",
          "name": "current",
          "type": "int256"
        },
        {
          "indexed": false,
          "internalType": "uint256",
          "name": "roundId",
          "type": "uint256"
        }
      ],
      "name": "AnswerUpdated",
      "type": "event"
    },
    {
      "anonymous": false,
      "inputs": [
        {
          "indexed": true,
          "internalType": "address",
          "name": "previousOwner",
          "type": "address"
        },
        {
          "indexed": true,
          "internalType": "address",
          "name": "newOwner",
          "type": "address"
        }
      ],
      "name": "OwnershipTransferred",
      "type": "event"
    },
    {
      "inputs": [],
      "name": "decimals",
      "outputs": [
        {
          "internalType": "uint8",
          "name": "",
          "type": "uint8"
        }
      ],
      "stateMutability": "view",
      "type": "function"
    },
    {
      "inputs": [],
      "name": "description",
      "outputs": [
        {
          "internalType": "string",
          "name": "",
          "type": "string"
        }
      ],
      "stateMutability": "pure",
      "type": "function"
    },
    {
      "inputs": [],
      "name": "getDecimals",
      "outputs": [
        {
          "internalType": "uint8",
          "name": "",
          "type": "uint8"
        }
      ],
      "stateMutability": "view",
      "type": "function"
    },
    {
      "inputs": [],
      "name": "latestAnswer",
      "outputs": [
        {
          "internalType": "int256",
          "name": "",
          "type": "int256"
        }
      ],
      "stateMutability": "view",
      "type": "function"
    },
    {
      "inputs": [],
      "name": "latestRound",
      "outputs": [
        {
          "internalType": "uint256",
          "name": "",
          "type": "uint256"
        }
      ],
      "stateMutability": "view",
      "type": "function"
    },
    {
      "inputs": [],
      "name": "latestRoundData",
      "outputs": [
        {
          "internalType": "uint80",
          "name": "roundId",
          "type": "uint80"
        },
        {
          "internalType": "int256",
          "name": "answer",
          "type": "int256"
        },
        {
          "internalType": "uint256",
          "name": "startedAt",
          "type": "uint256"
        },
        {
          "internalType": "uint256",
          "name": "updatedAt",
          "type": "uint256"
        },
        {
          "internalType": "uint80",
          "name": "answeredInRound",
          "type": "uint80"
        }
      ],
      "stateMutability": "view",
      "type": "function"
    },
    {
      "inputs": [],
      "name": "latestTimestamp",
      "outputs": [
        {
          "internalType": "uint256",
          "name": "",
          "type": "uint256"
        }
      ],
      "stateMutability": "view",
      "type": "function"
    },
    {
      "inputs": [],
      "name": "owner",
      "outputs": [
        {
          "internalType": "address",
          "name": "",
          "type": "address"
        }
      ],
      "stateMutability": "view",
      "type": "function"
    },
    {
      "inputs": [
        {
          "internalType": "address",
          "name": "newOwner",
          "type": "address"
        }
      ],
      "name": "setOwner",
      "outputs": [],
      "stateMutability": "nonpayable",
      "type": "function"
    },
    {
      "inputs": [
        {
          "internalType": "int256",
          "name": "answer",
          "type": "int256"
        }
      ],
      "name": "updateAnswer",
      "outputs": [],
      "stateMutability": "nonpayable",
      "type": "function"
    },
    {
      "inputs": [],
      "name": "version",
      "outputs": [
        {
          "internalType": "uint256",
          "name": "",
          "type": "uint256"
        }
      ],
      "stateMutability": "pure",
      "type": "function"
    }
  ],
  "bytecode": "0x608060405234801561001057600080fd5b5060405161069b38038061069b83398101604081905261002f9161014c565b6001600160a01b0382166100a15760405162461bcd60e51b815260206004820152602e60248201527f53696d706c6541676772656761746f723a206f776e65722063616e6e6f74206260448201526d65207a65726f206164647265737360901b60648201526084015b60405180910390fd5b60008160ff161161010e5760405162461bcd60e51b815260206004820152603160248201527f53696d706c6541676772656761746f723a20646563696d616c73206d75737420604482015270062652067726561746572207468616e203607c1b6064820152608401610098565b6000805460ff909216600160a01b026001600160a81b03199092166001600160a01b0390931692909217178155600381905542600255600155610198565b6000806040838503121561015f57600080fd5b82516001600160a01b038116811461017657600080fd5b602084015190925060ff8116811461018d57600080fd5b809150509250929050565b6104f4806101a76000396000f3fe608060405234801561001057600080fd5b50600436106100a95760003560e01c80637284e416116100715780637284e416146101155780638205bf6a146101405780638da5cb5b14610149578063a87a20ce14610174578063f0141d8414610187578063feaf968c1461019957600080fd5b806313af4035146100ae578063313ce567146100c357806350d25bcd146100ee57806354fd4d5014610105578063668a0f021461010c575b600080fd5b6100c16100bc3660046103b7565b6101d6565b005b6000546100d790600160a01b900460ff1681565b60405160ff90911681526020015b60405180910390f35b6100f760015481565b6040519081526020016100e5565b60016100f7565b6100f760035481565b6040805180820182526009815268109510c80bc81554d160ba1b602082015290516100e591906103e7565b6100f760025481565b60005461015c906001600160a01b031681565b6040516001600160a01b0390911681526020016100e5565b6100c1610182366004610435565b6102ca565b600054600160a01b900460ff166100d7565b6003546001546002546040805169ffffffffffffffffffff909416808552602085019390935283018190526060830152608082015260a0016100e5565b6000546001600160a01b031633146102095760405162461bcd60e51b81526004016102009061044e565b60405180910390fd5b6001600160a01b03811661027a5760405162461bcd60e51b815260206004820152603260248201527f53696d706c6541676772656761746f723a206e6577206f776e65722063616e6e6044820152716f74206265207a65726f206164647265737360701b6064820152608401610200565b600080546001600160a01b038381166001600160a01b0319831681178455604051919092169283917f8be0079c531659141344cd1fd0a4f28419497f9722a3daafe3b4186f6b6457e09190a35050565b6000546001600160a01b031633146102f45760405162461bcd60e51b81526004016102009061044e565b600081136103565760405162461bcd60e51b815260206004820152602960248201527f53696d706c6541676772656761746f723a20616e73776572206d75737420626560448201526820706f73697469766560b81b6064820152608401610200565b6001600360008282546103699190610497565b90915550506001819055426002556003546040805183815260208101929092527fc379d0e412d8792cf238c6c045bafec46b2bdad53a28ee4abce236ac6145ae84910160405180910390a150565b6000602082840312156103c957600080fd5b81356001600160a01b03811681146103e057600080fd5b9392505050565b600060208083528351808285015260005b81811015610414578581018301518582016040015282016103f8565b506000604082860101526040601f19601f8301168501019250505092915050565b60006020828403121561044757600080fd5b5035919050565b60208082526029908201527f53696d706c6541676772656761746f723a2063616c6c6572206973206e6f74206040820152683a34329037bbb732b960b91b606082015260800190565b808201808211156104b857634e487b7160e01b600052601160045260246000fd5b9291505056fea2646970667358221220b176382014bac36a2557172b8f09ab50b547e86410613bef27ac4103c044e9a364736f6c63430008130033",
  "linkReferences": {},
  "deployedLinkReferences": {}
}