{"contracts/BtcConsumer.sol":{"BtcConsumer":{"abi":[{"inputs":[{"internalType":"address","name":"_aggregator","type":"address"},{"internalType":"uint256","name":"_maxAge","type":"uint256"}],"stateMutability":"nonpayable","type":"constructor"},{"anonymous":false,"inputs":[{"indexed":false,"internalType":"int256","name":"rawPrice","type":"int256"},{"indexed":false,"internalType":"int256","name":"scaledPrice","type":"int256"},{"indexed":false,"internalType":"uint256","name":"timestamp","type":"uint256"}],"name":"PriceRequested","type":"event"},{"anonymous":false,"inputs":[{"indexed":false,"internalType":"uint256","name":"priceAge","type":"uint256"},{"indexed":false,"internalType":"uint256","name":"maxAge","type":"uint256"}],"name":"StalePriceRejected","type":"event"},{"inputs":[],"name":"aggregator","outputs":[{"internalType":"contract SimpleAggregator","name":"","type":"address"}],"stateMutability":"view","type":"function"},{"inputs":[],"name":"getAggregator","outputs":[{"internalType":"address","name":"","type":"address"}],"stateMutability":"view","type":"function"},{"inputs":[],"name":"getLatestPrice","outputs":[{"internalType":"int256","name":"price","type":"int256"},{"internalType":"uint256","name":"timestamp","type":"uint256"}],"stateMutability":"nonpayable","type":"function"},{"inputs":[],"name":"getMaxAge","outputs":[{"internalType":"uint256","name":"","type":"uint256"}],"stateMutability":"view","type":"function"},{"inputs":[],"name":"isStale","outputs":[{"internalType":"bool","name":"","type":"bool"}],"stateMutability":"view","type":"function"},{"inputs":[],"name":"maxAge","outputs":[{"internalType":"uint256","name":"","type":"uint256"}],"stateMutability":"view","type":"function"},{"inputs":[],"name":"viewLatestPrice","outputs":[{"internalType":"int256","name":"price","type":"int256"},{"internalType":"uint256","name":"timestamp","type":"uint256"},{"internalType":"bool","name":"isStale","type":"bool"}],"stateMutability":"view","type":"function"}],"evm":{"bytecode":{"linkReferences":{},"object":"60c060405234801561001057600080fd5b50604051610bb3380380610bb383398101604081905261002f9161011a565b6001600160a01b0382166100a15760405162461bcd60e51b815260206004820152602e60248201527f427463436f6e73756d65723a2061676772656761746f722063616e6e6f74206260448201526d65207a65726f206164647265737360901b60648201526084015b60405180910390fd5b600081116101045760405162461bcd60e51b815260206004820152602a60248201527f427463436f6e73756d65723a206d6178416765206d75737420626520677265616044820152690746572207468616e20360b41b6064820152608401610098565b6001600160a01b0390911660805260a052610154565b6000806040838503121561012d57600080fd5b82516001600160a01b038116811461014457600080fd5b6020939093015192949293505050565b60805160a0516109fc6101b76000396000818161012b0152818161015e0152818161026d01528181610548015261057701526000818160c901528181610105015281816101ab0152818161029401528181610409015261061201526109fc6000f3fe608060405234801561001057600080fd5b506004361061007d5760003560e01c80633ad59dbc1161005b5780633ad59dbc146101035780633d8d657b14610129578063687043c5146101595780638e15f4731461018057600080fd5b80630f0160d7146100825780631a26f447146100ac578063245a7bfc146100c4575b600080fd5b61008a61019d565b6040805193845260208401929092521515908201526060015b60405180910390f35b6100b461038c565b60405190151581526020016100a3565b6100eb7f000000000000000000000000000000000000000000000000000000000000000081565b6040516001600160a01b0390911681526020016100a3565b7f00000000000000000000000000000000000000000000000000000000000000006100eb565b7f00000000000000000000000000000000000000000000000000000000000000005b6040519081526020016100a3565b61014b7f000000000000000000000000000000000000000000000000000000000000000081565b6101886103fc565b604080519283526020830191909152016100a3565b6000806000806000806000807f00000000000000000000000000000000000000000000000000000000000000006001600160a01b031663feaf968c6040518163ffffffff1660e01b815260040160a060405180830381865afa158015610207573d6000803e3d6000fd5b505050506040513d601f19601f8201168201806040525081019061022b9190610767565b94509450945094509450600084131580610243575081155b1561025b575060009788975060019650945050505050565b600061026783426107cd565b905060007f00000000000000000000000000000000000000000000000000000000000000008211905060007f00000000000000000000000000000000000000000000000000000000000000006001600160a01b031663f0141d846040518163ffffffff1660e01b8152600401602060405180830381865afa1580156102f0573d6000803e3d6000fd5b505050506040513d601f19601f8201168201806040525081019061031491906107e6565b9050600060128260ff16101561034b5761032f826012610810565b61033a90600a61090d565b610344908961091c565b905061037a565b60128260ff16111561037757610362601283610810565b61036d90600a61090d565b610344908961094c565b50865b9b949a50909850929650505050505050565b6000806000306001600160a01b0316630f0160d76040518163ffffffff1660e01b8152600401606060405180830381865afa1580156103cf573d6000803e3d6000fd5b505050506040513d601f19601f820116820180604052508101906103f39190610988565b95945050505050565b60008060008060008060007f00000000000000000000000000000000000000000000000000000000000000006001600160a01b031663feaf968c6040518163ffffffff1660e01b815260040160a060405180830381865afa158015610465573d6000803e3d6000fd5b505050506040513d601f19601f820116820180604052508101906104899190610767565b94509450945094509450600084136104e85760405162461bcd60e51b815260206004820152601f60248201527f427463436f6e73756d65723a20696e76616c696420707269636520646174610060448201526064015b60405180910390fd5b600082116105385760405162461bcd60e51b815260206004820152601e60248201527f427463436f6e73756d65723a20696e76616c69642074696d657374616d70000060448201526064016104df565b600061054483426107cd565b90507f000000000000000000000000000000000000000000000000000000000000000081111561060e57604080518281527f000000000000000000000000000000000000000000000000000000000000000060208201527fef90595f14112b1debf04f9514812befac8f0d70c4c0e39534692e40c3f3b6d2910160405180910390a160405162461bcd60e51b815260206004820181905260248201527f427463436f6e73756d65723a2070726963652064617461206973207374616c6560448201526064016104df565b60007f00000000000000000000000000000000000000000000000000000000000000006001600160a01b031663f0141d846040518163ffffffff1660e01b8152600401602060405180830381865afa15801561066e573d6000803e3d6000fd5b505050506040513d601f19601f8201168201806040525081019061069291906107e6565b9050600060128260ff1610156106c9576106ad826012610810565b6106b890600a61090d565b6106c2908861091c565b90506106f8565b60128260ff1611156106f5576106e0601283610810565b6106eb90600a61090d565b6106c2908861094c565b50855b60408051888152602081018390529081018690527fe8ecb39de9117822f5f62034ed9d5068dc6a0e6a3d326190f4bee4cdca601b5e9060600160405180910390a199939850929650505050505050565b805169ffffffffffffffffffff8116811461076257600080fd5b919050565b600080600080600060a0868803121561077f57600080fd5b61078886610748565b94506020860151935060408601519250606086015191506107ab60808701610748565b90509295509295909350565b634e487b7160e01b600052601160045260246000fd5b818103818111156107e0576107e06107b7565b92915050565b6000602082840312156107f857600080fd5b815160ff8116811461080957600080fd5b9392505050565b60ff82811682821603908111156107e0576107e06107b7565b600181815b8085111561086457816000190482111561084a5761084a6107b7565b8085161561085757918102915b93841c939080029061082e565b509250929050565b60008261087b575060016107e0565b81610888575060006107e0565b816001811461089e57600281146108a8576108c4565b60019150506107e0565b60ff8411156108b9576108b96107b7565b50506001821b6107e0565b5060208310610133831016604e8410600b84101617156108e7575081810a6107e0565b6108f18383610829565b8060001904821115610905576109056107b7565b029392505050565b600061080960ff84168361086c565b80820260008212600160ff1b84141615610938576109386107b7565b81810583148215176107e0576107e06107b7565b60008261096957634e487b7160e01b600052601260045260246000fd5b600160ff1b821460001984141615610983576109836107b7565b500590565b60008060006060848603121561099d57600080fd5b8351925060208401519150604084015180151581146109bb57600080fd5b80915050925092509256fea2646970667358221220406bade1f41b1e1ebf970d35ec2ac3c7ee1ee4fc2cc7030d3325d1b4e50a294964736f6c63430008130033","opcodes":"PUSH1 0xC0 PUSH1 0x40 MSTORE CALLVALUE DUP1 ISZERO PUSH2 0x10 JUMPI PUSH1 0x0 DUP1 REVERT JUMPDEST POP PUSH1 0x40 MLOAD PUSH2 0xBB3 CODESIZE SUB DUP1 PUSH2 0xBB3 DUP4 CODECOPY DUP2 ADD PUSH1 0x40 DUP2 SWAP1 MSTORE PUSH2 0x2F SWAP2 PUSH2 0x11A JUMP JUMPDEST PUSH1 0x1 PUSH1 0x1 PUSH1 0xA0 SHL SUB DUP3 AND PUSH2 0xA1 JUMPI PUSH1 0x40 MLOAD PUSH3 0x461BCD PUSH1 0xE5 SHL DUP2 MSTORE PUSH1 0x20 PUSH1 0x4 DUP3 ADD MSTORE PUSH1 0x2E PUSH1 0x24 DUP3 ADD MSTORE PUSH32 0x427463436F6E73756D65723A2061676772656761746F722063616E6E6F742062 PUSH1 0x44 DUP3 ADD MSTORE PUSH14 0x65207A65726F2061646472657373 PUSH1 0x90 SHL PUSH1 0x64 DUP3 ADD MSTORE PUSH1 0x84 ADD JUMPDEST PUSH1 0x40 MLOAD DUP1 SWAP2 SUB SWAP1 REVERT JUMPDEST PUSH1 0x0 DUP2 GT PUSH2 0x104 JUMPI PUSH1 0x40 MLOAD PUSH3 0x461BCD PUSH1 0xE5 SHL DUP2 MSTORE PUSH1 0x20 PUSH1 0x4 DUP3 ADD MSTORE PUSH1 0x2A PUSH1 0x24 DUP3 ADD MSTORE PUSH32 0x427463436F6E73756D65723A206D6178416765206D7573742062652067726561 PUSH1 0x44 DUP3 ADD MSTORE PUSH10 0x746572207468616E203 PUSH1 0xB4 SHL PUSH1 0x64 DUP3 ADD MSTORE PUSH1 0x84 ADD PUSH2 0x98 JUMP JUMPDEST PUSH1 0x1 PUSH1 0x1 PUSH1 0xA0 SHL SUB SWAP1 SWAP2 AND PUSH1 0x80 MSTORE PUSH1 0xA0 MSTORE PUSH2 0x154 JUMP JUMPDEST PUSH1 0x0 DUP1 PUSH1 0x40 DUP4 DUP6 SUB SLT ISZERO PUSH2 0x12D JUMPI PUSH1 0x0 DUP1 REVERT JUMPDEST DUP3 MLOAD PUSH1 0x1 PUSH1 0x1 PUSH1 0xA0 SHL SUB DUP2 AND DUP2 EQ PUSH2 0x144 JUMPI PUSH1 0x0 DUP1 REVERT JUMPDEST PUSH1 0x20 SWAP4 SWAP1 SWAP4 ADD MLOAD SWAP3 SWAP5 SWAP3 SWAP4 POP POP POP JUMP JUMPDEST PUSH1 0x80 MLOAD PUSH1 0xA0 MLOAD PUSH2 0x9FC PUSH2 0x1B7 PUSH1 0x0 CODECOPY PUSH1 0x0 DUP2 DUP2 PUSH2 0x12B ADD MSTORE DUP2 DUP2 PUSH2 0x15E ADD MSTORE DUP2 DUP2 PUSH2 0x26D ADD MSTORE DUP2 DUP2 PUSH2 0x548 ADD MSTORE PUSH2 0x577 ADD MSTORE PUSH1 0x0 DUP2 DUP2 PUSH1 0xC9 ADD MSTORE DUP2 DUP2 PUSH2 0x105 ADD MSTORE DUP2 DUP2 PUSH2 0x1AB ADD MSTORE DUP2 DUP2 PUSH2 0x294 ADD MSTORE DUP2 DUP2 PUSH2 0x409 ADD MSTORE PUSH2 0x612 ADD MSTORE PUSH2 0x9FC PUSH1 0x0 RETURN INVALID PUSH1 0x80 PUSH1 0x40 MSTORE CALLVALUE DUP1 ISZERO PUSH2 0x10 JUMPI PUSH1 0x0 DUP1 REVERT JUMPDEST POP PUSH1 0x4 CALLDATASIZE LT PUSH2 0x7D JUMPI PUSH1 0x0 CALLDATALOAD PUSH1 0xE0 SHR DUP1 PUSH4 0x3AD59DBC GT PUSH2 0x5B JUMPI DUP1 PUSH4 0x3AD59DBC EQ PUSH2 0x103 JUMPI DUP1 PUSH4 0x3D8D657B EQ PUSH2 0x129 JUMPI DUP1 PUSH4 0x687043C5 EQ PUSH2 0x159 JUMPI DUP1 PUSH4 0x8E15F473 EQ PUSH2 0x180 JUMPI PUSH1 0x0 DUP1 REVERT JUMPDEST DUP1 PUSH4 0xF0160D7 EQ PUSH2 0x82 JUMPI DUP1 PUSH4 0x1A26F447 EQ PUSH2 0xAC JUMPI DUP1 PUSH4 0x245A7BFC EQ PUSH2 0xC4 JUMPI JUMPDEST PUSH1 0x0 DUP1 REVERT JUMPDEST PUSH2 0x8A PUSH2 0x19D JUMP JUMPDEST PUSH1 0x40 DUP1 MLOAD SWAP4 DUP5 MSTORE PUSH1 0x20 DUP5 ADD SWAP3 SWAP1 SWAP3 MSTORE ISZERO ISZERO SWAP1 DUP3 ADD MSTORE PUSH1 0x60 ADD JUMPDEST PUSH1 0x40 MLOAD DUP1 SWAP2 SUB SWAP1 RETURN JUMPDEST PUSH2 0xB4 PUSH2 0x38C JUMP JUMPDEST PUSH1 0x40 MLOAD SWAP1 ISZERO ISZERO DUP2 MSTORE PUSH1 0x20 ADD PUSH2 0xA3 JUMP JUMPDEST PUSH2 0xEB PUSH32 0x0 DUP2 JUMP JUMPDEST PUSH1 0x40 MLOAD PUSH1 0x1 PUSH1 0x1 PUSH1 0xA0 SHL SUB SWAP1 SWAP2 AND DUP2 MSTORE PUSH1 0x20 ADD PUSH2 0xA3 JUMP JUMPDEST PUSH32 0x0 PUSH2 0xEB JUMP JUMPDEST PUSH32 0x0 JUMPDEST PUSH1 0x40 MLOAD SWAP1 DUP2 MSTORE PUSH1 0x20 ADD PUSH2 0xA3 JUMP JUMPDEST PUSH2 0x14B PUSH32 0x0 DUP2 JUMP JUMPDEST PUSH2 0x188 PUSH2 0x3FC JUMP JUMPDEST PUSH1 0x40 DUP1 MLOAD SWAP3 DUP4 MSTORE PUSH1 0x20 DUP4 ADD SWAP2 SWAP1 SWAP2 MSTORE ADD PUSH2 0xA3 JUMP JUMPDEST PUSH1 0x0 DUP1 PUSH1 0x0 DUP1 PUSH1 0x0 DUP1 PUSH1 0x0 DUP1 PUSH32 0x0 PUSH1 0x1 PUSH1 0x1 PUSH1 0xA0 SHL SUB AND PUSH4 0xFEAF968C PUSH1 0x40 MLOAD DUP2 PUSH4 0xFFFFFFFF AND PUSH1 0xE0 SHL DUP2 MSTORE PUSH1 0x4 ADD PUSH1 0xA0 PUSH1 0x40 MLOAD DUP1 DUP4 SUB DUP2 DUP7 GAS STATICCALL ISZERO DUP1 ISZERO PUSH2 0x207 JUMPI RETURNDATASIZE PUSH1 0x0 DUP1 RETURNDATACOPY RETURNDATASIZE PUSH1 0x0 REVERT JUMPDEST POP POP POP POP PUSH1 0x40 MLOAD RETURNDATASIZE PUSH1 0x1F NOT PUSH1 0x1F DUP3 ADD AND DUP3 ADD DUP1 PUSH1 0x40 MSTORE POP DUP2 ADD SWAP1 PUSH2 0x22B SWAP2 SWAP1 PUSH2 0x767 JUMP JUMPDEST SWAP5 POP SWAP5 POP SWAP5 POP SWAP5 POP SWAP5 POP PUSH1 0x0 DUP5 SGT ISZERO DUP1 PUSH2 0x243 JUMPI POP DUP2 ISZERO JUMPDEST ISZERO PUSH2 0x25B JUMPI POP PUSH1 0x0 SWAP8 DUP9 SWAP8 POP PUSH1 0x1 SWAP7 POP SWAP5 POP POP POP POP POP JUMP JUMPDEST PUSH1 0x0 PUSH2 0x267 DUP4 TIMESTAMP PUSH2 0x7CD JUMP JUMPDEST SWAP1 POP PUSH1 0x0 PUSH32 0x0 DUP3 GT SWAP1 POP PUSH1 0x0 PUSH32 0x0 PUSH1 0x1 PUSH1 0x1 PUSH1 0xA0 SHL SUB AND PUSH4 0xF0141D84 PUSH1 0x40 MLOAD DUP2 PUSH4 0xFFFFFFFF AND PUSH1 0xE0 SHL DUP2 MSTORE PUSH1 0x4 ADD PUSH1 0x20 PUSH1 0x40 MLOAD DUP1 DUP4 SUB DUP2 DUP7 GAS STATICCALL ISZERO DUP1 ISZERO PUSH2 0x2F0 JUMPI RETURNDATASIZE PUSH1 0x0 DUP1 RETURNDATACOPY RETURNDATASIZE PUSH1 0x0 REVERT JUMPDEST POP POP POP POP PUSH1 0x40 MLOAD RETURNDATASIZE PUSH1 0x1F NOT PUSH1 0x1F DUP3 ADD AND DUP3 ADD DUP1 PUSH1 0x40 MSTORE POP DUP2 ADD SWAP1 PUSH2 0x314 SWAP2 SWAP1 PUSH2 0x7E6 JUMP JUMPDEST SWAP1 POP PUSH1 0x0 PUSH1 0x12 DUP3 PUSH1 0xFF AND LT ISZERO PUSH2 0x34B JUMPI PUSH2 0x32F DUP3 PUSH1 0x12 PUSH2 0x810 JUMP JUMPDEST PUSH2 0x33A SWAP1 PUSH1 0xA PUSH2 0x90D JUMP JUMPDEST PUSH2 0x344 SWAP1 DUP10 PUSH2 0x91C JUMP JUMPDEST SWAP1 POP PUSH2 0x37A JUMP JUMPDEST PUSH1 0x12 DUP3 PUSH1 0xFF AND GT ISZERO PUSH2 0x377 JUMPI PUSH2 0x362 PUSH1 0x12 DUP4 PUSH2 0x810 JUMP JUMPDEST PUSH2 0x36D SWAP1 PUSH1 0xA PUSH2 0x90D JUMP JUMPDEST PUSH2 0x344 SWAP1 DUP10 PUSH2 0x94C JUMP JUMPDEST POP DUP7 JUMPDEST SWAP12 SWAP5 SWAP11 POP SWAP1 SWAP9 POP SWAP3 SWAP7 POP POP POP POP POP POP POP JUMP JUMPDEST PUSH1 0x0 DUP1 PUSH1 0x0 ADDRESS PUSH1 0x1 PUSH1 0x1 PUSH1 0xA0 SHL SUB AND PUSH4 0xF0160D7 PUSH1 0x40 MLOAD DUP2 PUSH4 0xFFFFFFFF AND PUSH1 0xE0 SHL DUP2 MSTORE PUSH1 0x4 ADD PUSH1 0x60 PUSH1 0x40 MLOAD DUP1 DUP4 SUB DUP2 DUP7 GAS STATICCALL ISZERO DUP1 ISZERO PUSH2 0x3CF JUMPI RETURNDATASIZE PUSH1 0x0 DUP1 RETURNDATACOPY RETURNDATASIZE PUSH1 0x0 REVERT JUMPDEST POP POP POP POP PUSH1 0x40 MLOAD RETURNDATASIZE PUSH1 0x1F NOT PUSH1 0x1F DUP3 ADD AND DUP3 ADD DUP1 PUSH1 0x40 MSTORE POP DUP2 ADD SWAP1 PUSH2 0x3F3 SWAP2 SWAP1 PUSH2 0x988 JUMP JUMPDEST SWAP6 SWAP5 POP POP POP POP POP JUMP JUMPDEST PUSH1 0x0 DUP1 PUSH1 0x0 DUP1 PUSH1 0x0 DUP1 PUSH1 0x0 PUSH32 0x0 PUSH1 0x1 PUSH1 0x1 PUSH1 0xA0 SHL SUB AND PUSH4 0xFEAF968C PUSH1 0x40 MLOAD DUP2 PUSH4 0xFFFFFFFF AND PUSH1 0xE0 SHL DUP2 MSTORE PUSH1 0x4 ADD PUSH1 0xA0 PUSH1 0x40 MLOAD DUP1 DUP4 SUB DUP2 DUP7 GAS STATICCALL ISZERO DUP1 ISZERO PUSH2 0x465 JUMPI RETURNDATASIZE PUSH1 0x0 DUP1 RETURNDATACOPY RETURNDATASIZE PUSH1 0x0 REVERT JUMPDEST POP POP POP POP PUSH1 0x40 MLOAD RETURNDATASIZE PUSH1 0x1F NOT PUSH1 0x1F DUP3 ADD AND DUP3 ADD DUP1 PUSH1 0x40 MSTORE POP DUP2 ADD SWAP1 PUSH2 0x489 SWAP2 SWAP1 PUSH2 0x767 JUMP JUMPDEST SWAP5 POP SWAP5 POP SWAP5 POP SWAP5 POP SWAP5 POP PUSH1 0x0 DUP5 SGT PUSH2 0x4E8 JUMPI PUSH1 0x40 MLOAD PUSH3 0x461BCD PUSH1 0xE5 SHL DUP2 MSTORE PUSH1 0x20 PUSH1 0x4 DUP3 ADD MSTORE PUSH1 0x1F PUSH1 0x24 DUP3 ADD MSTORE PUSH32 0x427463436F6E73756D65723A20696E76616C6964207072696365206461746100 PUSH1 0x44 DUP3 ADD MSTORE PUSH1 0x64 ADD JUMPDEST PUSH1 0x40 MLOAD DUP1 SWAP2 SUB SWAP1 REVERT JUMPDEST PUSH1 0x0 DUP3 GT PUSH2 0x538 JUMPI PUSH1 0x40 MLOAD PUSH3 0x461BCD PUSH1 0xE5 SHL DUP2 MSTORE PUSH1 0x20 PUSH1 0x4 DUP3 ADD MSTORE PUSH1 0x1E PUSH1 0x24 DUP3 ADD MSTORE PUSH32 0x427463436F6E73756D65723A20696E76616C69642074696D657374616D700000 PUSH1 0x44 DUP3 ADD MSTORE PUSH1 0x64 ADD PUSH2 0x4DF JUMP JUMPDEST PUSH1 0x0 PUSH2 0x544 DUP4 TIMESTAMP PUSH2 0x7CD JUMP JUMPDEST SWAP1 POP PUSH32 0x0 DUP2 GT ISZERO PUSH2 0x60E JUMPI PUSH1 0x40 DUP1 MLOAD DUP3 DUP2 MSTORE PUSH32 0x0 PUSH1 0x20 DUP3 ADD MSTORE PUSH32 0xEF90595F14112B1DEBF04F9514812BEFAC8F0D70C4C0E39534692E40C3F3B6D2 SWAP2 ADD PUSH1 0x40 MLOAD DUP1 SWAP2 SUB SWAP1 LOG1 PUSH1 0x40 MLOAD PUSH3 0x461BCD PUSH1 0xE5 SHL DUP2 MSTORE PUSH1 0x20 PUSH1 0x4 DUP3 ADD DUP2 SWAP1 MSTORE PUSH1 0x24 DUP3 ADD MSTORE PUSH32 0x427463436F6E73756D65723A2070726963652064617461206973207374616C65 PUSH1 0x44 DUP3 ADD MSTORE PUSH1 0x64 ADD PUSH2 0x4DF JUMP JUMPDEST PUSH1 0x0 PUSH32 0x0 PUSH1 0x1 PUSH1 0x1 PUSH1 0xA0 SHL SUB AND PUSH4 0xF0141D84 PUSH1 0x40 MLOAD DUP2 PUSH4 0xFFFFFFFF AND PUSH1 0xE0 SHL DUP2 MSTORE PUSH1 0x4 ADD PUSH1 0x20 PUSH1 0x40 MLOAD DUP1 DUP4 SUB DUP2 DUP7 GAS STATICCALL ISZERO DUP1 ISZERO PUSH2 0x66E JUMPI RETURNDATASIZE PUSH1 0x0 DUP1 RETURNDATACOPY RETURNDATASIZE PUSH1 0x0 REVERT JUMPDEST POP POP POP POP PUSH1 0x40 MLOAD RETURNDATASIZE PUSH1 0x1F NOT PUSH1 0x1F DUP3 ADD AND DUP3 ADD DUP1 PUSH1 0x40 MSTORE POP DUP2 ADD SWAP1 PUSH2 0x692 SWAP2 SWAP1 PUSH2 0x7E6 JUMP JUMPDEST SWAP1 POP PUSH1 0x0 PUSH1 0x12 DUP3 PUSH1 0xFF AND LT ISZERO PUSH2 0x6C9 JUMPI PUSH2 0x6AD DUP3 PUSH1 0x12 PUSH2 0x810 JUMP JUMPDEST PUSH2 0x6B8 SWAP1 PUSH1 0xA PUSH2 0x90D JUMP JUMPDEST PUSH2 0x6C2 SWAP1 DUP9 PUSH2 0x91C JUMP JUMPDEST SWAP1 POP PUSH2 0x6F8 JUMP JUMPDEST PUSH1 0x12 DUP3 PUSH1 0xFF AND GT ISZERO PUSH2 0x6F5 JUMPI PUSH2 0x6E0 PUSH1 0x12 DUP4 PUSH2 0x810 JUMP JUMPDEST PUSH2 0x6EB SWAP1 PUSH1 0xA PUSH2 0x90D JUMP JUMPDEST PUSH2 0x6C2 SWAP1 DUP9 PUSH2 0x94C JUMP JUMPDEST POP DUP6 JUMPDEST PUSH1 0x40 DUP1 MLOAD DUP9 DUP2 MSTORE PUSH1 0x20 DUP2 ADD DUP4 SWAP1 MSTORE SWAP1 DUP2 ADD DUP7 SWAP1 MSTORE PUSH32 0xE8ECB39DE9117822F5F62034ED9D5068DC6A0E6A3D326190F4BEE4CDCA601B5E SWAP1 PUSH1 0x60 ADD PUSH1 0x40 MLOAD DUP1 SWAP2 SUB SWAP1 LOG1 SWAP10 SWAP4 SWAP9 POP SWAP3 SWAP7 POP POP POP POP POP POP POP JUMP JUMPDEST DUP1 MLOAD PUSH10 0xFFFFFFFFFFFFFFFFFFFF DUP2 AND DUP2 EQ PUSH2 0x762 JUMPI PUSH1 0x0 DUP1 REVERT JUMPDEST SWAP2 SWAP1 POP JUMP JUMPDEST PUSH1 0x0 DUP1 PUSH1 0x0 DUP1 PUSH1 0x0 PUSH1 0xA0 DUP7 DUP9 SUB SLT ISZERO PUSH2 0x77F JUMPI PUSH1 0x0 DUP1 REVERT JUMPDEST PUSH2 0x788 DUP7 PUSH2 0x748 JUMP JUMPDEST SWAP5 POP PUSH1 0x20 DUP7 ADD MLOAD SWAP4 POP PUSH1 0x40 DUP7 ADD MLOAD SWAP3 POP PUSH1 0x60 DUP7 ADD MLOAD SWAP2 POP PUSH2 0x7AB PUSH1 0x80 DUP8 ADD PUSH2 0x748 JUMP JUMPDEST SWAP1 POP SWAP3 SWAP6 POP SWAP3 SWAP6 SWAP1 SWAP4 POP JUMP JUMPDEST PUSH4 0x4E487B71 PUSH1 0xE0 SHL PUSH1 0x0 MSTORE PUSH1 0x11 PUSH1 0x4 MSTORE PUSH1 0x24 PUSH1 0x0 REVERT JUMPDEST DUP2 DUP2 SUB DUP2 DUP2 GT ISZERO PUSH2 0x7E0 JUMPI PUSH2 0x7E0 PUSH2 0x7B7 JUMP JUMPDEST SWAP3 SWAP2 POP POP JUMP JUMPDEST PUSH1 0x0 PUSH1 0x20 DUP3 DUP5 SUB SLT ISZERO PUSH2 0x7F8 JUMPI PUSH1 0x0 DUP1 REVERT JUMPDEST DUP2 MLOAD PUSH1 0xFF DUP2 AND DUP2 EQ PUSH2 0x809 JUMPI PUSH1 0x0 DUP1 REVERT JUMPDEST SWAP4 SWAP3 POP POP POP JUMP JUMPDEST PUSH1 0xFF DUP3 DUP2 AND DUP3 DUP3 AND SUB SWAP1 DUP2 GT ISZERO PUSH2 0x7E0 JUMPI PUSH2 0x7E0 PUSH2 0x7B7 JUMP JUMPDEST PUSH1 0x1 DUP2 DUP2 JUMPDEST DUP1 DUP6 GT ISZERO PUSH2 0x864 JUMPI DUP2 PUSH1 0x0 NOT DIV DUP3 GT ISZERO PUSH2 0x84A JUMPI PUSH2 0x84A PUSH2 0x7B7 JUMP JUMPDEST DUP1 DUP6 AND ISZERO PUSH2 0x857 JUMPI SWAP2 DUP2 MUL SWAP2 JUMPDEST SWAP4 DUP5 SHR SWAP4 SWAP1 DUP1 MUL SWAP1 PUSH2 0x82E JUMP JUMPDEST POP SWAP3 POP SWAP3 SWAP1 POP JUMP JUMPDEST PUSH1 0x0 DUP3 PUSH2 0x87B JUMPI POP PUSH1 0x1 PUSH2 0x7E0 JUMP JUMPDEST DUP2 PUSH2 0x888 JUMPI POP PUSH1 0x0 PUSH2 0x7E0 JUMP JUMPDEST DUP2 PUSH1 0x1 DUP2 EQ PUSH2 0x89E JUMPI PUSH1 0x2 DUP2 EQ PUSH2 0x8A8 JUMPI PUSH2 0x8C4 JUMP JUMPDEST PUSH1 0x1 SWAP2 POP POP PUSH2 0x7E0 JUMP JUMPDEST PUSH1 0xFF DUP5 GT ISZERO PUSH2 0x8B9 JUMPI PUSH2 0x8B9 PUSH2 0x7B7 JUMP JUMPDEST POP POP PUSH1 0x1 DUP3 SHL PUSH2 0x7E0 JUMP JUMPDEST POP PUSH1 0x20 DUP4 LT PUSH2 0x133 DUP4 LT AND PUSH1 0x4E DUP5 LT PUSH1 0xB DUP5 LT AND OR ISZERO PUSH2 0x8E7 JUMPI POP DUP2 DUP2 EXP PUSH2 0x7E0 JUMP JUMPDEST PUSH2 0x8F1 DUP4 DUP4 PUSH2 0x829 JUMP JUMPDEST DUP1 PUSH1 0x0 NOT DIV DUP3 GT ISZERO PUSH2 0x905 JUMPI PUSH2 0x905 PUSH2 0x7B7 JUMP JUMPDEST MUL SWAP4 SWAP3 POP POP POP JUMP JUMPDEST PUSH1 0x0 PUSH2 0x809 PUSH1 0xFF DUP5 AND DUP4 PUSH2 0x86C JUMP JUMPDEST DUP1 DUP3 MUL PUSH1 0x0 DUP3 SLT PUSH1 0x1 PUSH1 0xFF SHL DUP5 EQ AND ISZERO PUSH2 0x938 JUMPI PUSH2 0x938 PUSH2 0x7B7 JUMP JUMPDEST DUP2 DUP2 SDIV DUP4 EQ DUP3 ISZERO OR PUSH2 0x7E0 JUMPI PUSH2 0x7E0 PUSH2 0x7B7 JUMP JUMPDEST PUSH1 0x0 DUP3 PUSH2 0x969 JUMPI PUSH4 0x4E487B71 PUSH1 0xE0 SHL PUSH1 0x0 MSTORE PUSH1 0x12 PUSH1 0x4 MSTORE PUSH1 0x24 PUSH1 0x0 REVERT JUMPDEST PUSH1 0x1 PUSH1 0xFF SHL DUP3 EQ PUSH1 0x0 NOT DUP5 EQ AND ISZERO PUSH2 0x983 JUMPI PUSH2 0x983 PUSH2 0x7B7 JUMP JUMPDEST POP SDIV SWAP1 JUMP JUMPDEST PUSH1 0x0 DUP1 PUSH1 0x0 PUSH1 0x60 DUP5 DUP7 SUB SLT ISZERO PUSH2 0x99D JUMPI PUSH1 0x0 DUP1 REVERT JUMPDEST DUP4 MLOAD SWAP3 POP PUSH1 0x20 DUP5 ADD MLOAD SWAP2 POP PUSH1 0x40 DUP5 ADD MLOAD DUP1 ISZERO ISZERO DUP2 EQ PUSH2 0x9BB JUMPI PUSH1 0x0 DUP1 REVERT JUMPDEST DUP1 SWAP2 POP POP SWAP3 POP SWAP3 POP SWAP3 JUMP INVALID LOG2 PUSH5 0x6970667358 0x22 SLT KECCAK256 BLOCKHASH PUSH12 0xADE1F41B1E1EBF970D35EC2A 0xC3 0xC7 0xEE 0x1E 0xE4 0xFC 0x2C 0xC7 SUB 0xD CALLER 0x25 0xD1 0xB4 0xE5 EXP 0x29 0x49 PUSH5 0x736F6C6343 STOP ADDMOD SGT STOP CALLER "},"methodIdentifiers":{"aggregator()":"245a7bfc","getAggregator()":"3ad59dbc","getLatestPrice()":"8e15f473","getMaxAge()":"3d8d657b","isStale()":"1a26f447","maxAge()":"687043c5","viewLatestPrice()":"0f0160d7"}}}}}