{"contracts/SimpleAggregator.sol":{"SimpleAggregator":{"abi":[{"inputs":[{"internalType":"address","name":"_owner","type":"address"},{"internalType":"uint8","name":"_decimals","type":"uint8"}],"stateMutability":"nonpayable","type":"constructor"},{"anonymous":false,"inputs":[{"indexed":false,"internalType":"int256","name":"current","type":"int256"},{"indexed":false,"internalType":"uint256","name":"roundId","type":"uint256"}],"name":"AnswerUpdated","type":"event"},{"anonymous":false,"inputs":[{"indexed":true,"internalType":"address","name":"previousOwner","type":"address"},{"indexed":true,"internalType":"address","name":"newOwner","type":"address"}],"name":"OwnershipTransferred","type":"event"},{"inputs":[],"name":"decimals","outputs":[{"internalType":"uint8","name":"","type":"uint8"}],"stateMutability":"view","type":"function"},{"inputs":[],"name":"description","outputs":[{"internalType":"string","name":"","type":"string"}],"stateMutability":"pure","type":"function"},{"inputs":[],"name":"getDecimals","outputs":[{"internalType":"uint8","name":"","type":"uint8"}],"stateMutability":"view","type":"function"},{"inputs":[],"name":"latestAnswer","outputs":[{"internalType":"int256","name":"","type":"int256"}],"stateMutability":"view","type":"function"},{"inputs":[],"name":"latestRound","outputs":[{"internalType":"uint256","name":"","type":"uint256"}],"stateMutability":"view","type":"function"},{"inputs":[],"name":"latestRoundData","outputs":[{"internalType":"uint80","name":"roundId","type":"uint80"},{"internalType":"int256","name":"answer","type":"int256"},{"internalType":"uint256","name":"startedAt","type":"uint256"},{"internalType":"uint256","name":"updatedAt","type":"uint256"},{"internalType":"uint80","name":"answeredInRound","type":"uint80"}],"stateMutability":"view","type":"function"},{"inputs":[],"name":"latestTimestamp","outputs":[{"internalType":"uint256","name":"","type":"uint256"}],"stateMutability":"view","type":"function"},{"inputs":[],"name":"owner","outputs":[{"internalType":"address","name":"","type":"address"}],"stateMutability":"view","type":"function"},{"inputs":[{"internalType":"address","name":"newOwner","type":"address"}],"name":"setOwner","outputs":[],"stateMutability":"nonpayable","type":"function"},{"inputs":[{"internalType":"int256","name":"answer","type":"int256"}],"name":"updateAnswer","outputs":[],"stateMutability":"nonpayable","type":"function"},{"inputs":[],"name":"version","outputs":[{"internalType":"uint256","name":"","type":"uint256"}],"stateMutability":"pure","type":"function"}],"evm":{"bytecode":{"linkReferences":{},"object":"608060405234801561001057600080fd5b5060405161069b38038061069b83398101604081905261002f9161014c565b6001600160a01b0382166100a15760405162461bcd60e51b815260206004820152602e60248201527f53696d706c6541676772656761746f723a206f776e65722063616e6e6f74206260448201526d65207a65726f206164647265737360901b60648201526084015b60405180910390fd5b60008160ff161161010e5760405162461bcd60e51b815260206004820152603160248201527f53696d706c6541676772656761746f723a20646563696d616c73206d75737420604482015270062652067726561746572207468616e203607c1b6064820152608401610098565b6000805460ff909216600160a01b026001600160a81b03199092166001600160a01b0390931692909217178155600381905542600255600155610198565b6000806040838503121561015f57600080fd5b82516001600160a01b038116811461017657600080fd5b602084015190925060ff8116811461018d57600080fd5b809150509250929050565b6104f4806101a76000396000f3fe608060405234801561001057600080fd5b50600436106100a95760003560e01c80637284e416116100715780637284e416146101155780638205bf6a146101405780638da5cb5b14610149578063a87a20ce14610174578063f0141d8414610187578063feaf968c1461019957600080fd5b806313af4035146100ae578063313ce567146100c357806350d25bcd146100ee57806354fd4d5014610105578063668a0f021461010c575b600080fd5b6100c16100bc3660046103b7565b6101d6565b005b6000546100d790600160a01b900460ff1681565b60405160ff90911681526020015b60405180910390f35b6100f760015481565b6040519081526020016100e5565b60016100f7565b6100f760035481565b6040805180820182526009815268109510c80bc81554d160ba1b602082015290516100e591906103e7565b6100f760025481565b60005461015c906001600160a01b031681565b6040516001600160a01b0390911681526020016100e5565b6100c1610182366004610435565b6102ca565b600054600160a01b900460ff166100d7565b6003546001546002546040805169ffffffffffffffffffff909416808552602085019390935283018190526060830152608082015260a0016100e5565b6000546001600160a01b031633146102095760405162461bcd60e51b81526004016102009061044e565b60405180910390fd5b6001600160a01b03811661027a5760405162461bcd60e51b815260206004820152603260248201527f53696d706c6541676772656761746f723a206e6577206f776e65722063616e6e6044820152716f74206265207a65726f206164647265737360701b6064820152608401610200565b600080546001600160a01b038381166001600160a01b0319831681178455604051919092169283917f8be0079c531659141344cd1fd0a4f28419497f9722a3daafe3b4186f6b6457e09190a35050565b6000546001600160a01b031633146102f45760405162461bcd60e51b81526004016102009061044e565b600081136103565760405162461bcd60e51b815260206004820152602960248201527f53696d706c6541676772656761746f723a20616e73776572206d75737420626560448201526820706f73697469766560b81b6064820152608401610200565b6001600360008282546103699190610497565b90915550506001819055426002556003546040805183815260208101929092527fc379d0e412d8792cf238c6c045bafec46b2bdad53a28ee4abce236ac6145ae84910160405180910390a150565b6000602082840312156103c957600080fd5b81356001600160a01b03811681146103e057600080fd5b9392505050565b600060208083528351808285015260005b81811015610414578581018301518582016040015282016103f8565b506000604082860101526040601f19601f8301168501019250505092915050565b60006020828403121561044757600080fd5b5035919050565b60208082526029908201527f53696d706c6541676772656761746f723a2063616c6c6572206973206e6f74206040820152683a34329037bbb732b960b91b606082015260800190565b808201808211156104b857634e487b7160e01b600052601160045260246000fd5b9291505056fea2646970667358221220b176382014bac36a2557172b8f09ab50b547e86410613bef27ac4103c044e9a364736f6c63430008130033","opcodes":"PUSH1 0x80 PUSH1 0x40 MSTORE CALLVALUE DUP1 ISZERO PUSH2 0x10 JUMPI PUSH1 0x0 DUP1 REVERT JUMPDEST POP PUSH1 0x40 MLOAD PUSH2 0x69B CODESIZE SUB DUP1 PUSH2 0x69B DUP4 CODECOPY DUP2 ADD PUSH1 0x40 DUP2 SWAP1 MSTORE PUSH2 0x2F SWAP2 PUSH2 0x14C JUMP JUMPDEST PUSH1 0x1 PUSH1 0x1 PUSH1 0xA0 SHL SUB DUP3 AND PUSH2 0xA1 JUMPI PUSH1 0x40 MLOAD PUSH3 0x461BCD PUSH1 0xE5 SHL DUP2 MSTORE PUSH1 0x20 PUSH1 0x4 DUP3 ADD MSTORE PUSH1 0x2E PUSH1 0x24 DUP3 ADD MSTORE PUSH32 0x53696D706C6541676772656761746F723A206F776E65722063616E6E6F742062 PUSH1 0x44 DUP3 ADD MSTORE PUSH14 0x65207A65726F2061646472657373 PUSH1 0x90 SHL PUSH1 0x64 DUP3 ADD MSTORE PUSH1 0x84 ADD JUMPDEST PUSH1 0x40 MLOAD DUP1 SWAP2 SUB SWAP1 REVERT JUMPDEST PUSH1 0x0 DUP2 PUSH1 0xFF AND GT PUSH2 0x10E JUMPI PUSH1 0x40 MLOAD PUSH3 0x461BCD PUSH1 0xE5 SHL DUP2 MSTORE PUSH1 0x20 PUSH1 0x4 DUP3 ADD MSTORE PUSH1 0x31 PUSH1 0x24 DUP3 ADD MSTORE PUSH32 0x53696D706C6541676772656761746F723A20646563696D616C73206D75737420 PUSH1 0x44 DUP3 ADD MSTORE PUSH17 0x62652067726561746572207468616E203 PUSH1 0x7C SHL PUSH1 0x64 DUP3 ADD MSTORE PUSH1 0x84 ADD PUSH2 0x98 JUMP JUMPDEST PUSH1 0x0 DUP1 SLOAD PUSH1 0xFF SWAP1 SWAP3 AND PUSH1 0x1 PUSH1 0xA0 SHL MUL PUSH1 0x1 PUSH1 0x1 PUSH1 0xA8 SHL SUB NOT SWAP1 SWAP3 AND PUSH1 0x1 PUSH1 0x1 PUSH1 0xA0 SHL SUB SWAP1 SWAP4 AND SWAP3 SWAP1 SWAP3 OR OR DUP2 SSTORE PUSH1 0x3 DUP2 SWAP1 SSTORE TIMESTAMP PUSH1 0x2 SSTORE PUSH1 0x1 SSTORE PUSH2 0x198 JUMP JUMPDEST PUSH1 0x0 DUP1 PUSH1 0x40 DUP4 DUP6 SUB SLT ISZERO PUSH2 0x15F JUMPI PUSH1 0x0 DUP1 REVERT JUMPDEST DUP3 MLOAD PUSH1 0x1 PUSH1 0x1 PUSH1 0xA0 SHL SUB DUP2 AND DUP2 EQ PUSH2 0x176 JUMPI PUSH1 0x0 DUP1 REVERT JUMPDEST PUSH1 0x20 DUP5 ADD MLOAD SWAP1 SWAP3 POP PUSH1 0xFF DUP2 AND DUP2 EQ PUSH2 0x18D JUMPI PUSH1 0x0 DUP1 REVERT JUMPDEST DUP1 SWAP2 POP POP SWAP3 POP SWAP3 SWAP1 POP JUMP JUMPDEST PUSH2 0x4F4 DUP1 PUSH2 0x1A7 PUSH1 0x0 CODECOPY PUSH1 0x0 RETURN INVALID PUSH1 0x80 PUSH1 0x40 MSTORE CALLVALUE DUP1 ISZERO PUSH2 0x10 JUMPI PUSH1 0x0 DUP1 REVERT JUMPDEST POP PUSH1 0x4 CALLDATASIZE LT PUSH2 0xA9 JUMPI PUSH1 0x0 CALLDATALOAD PUSH1 0xE0 SHR DUP1 PUSH4 0x7284E416 GT PUSH2 0x71 JUMPI DUP1 PUSH4 0x7284E416 EQ PUSH2 0x115 JUMPI DUP1 PUSH4 0x8205BF6A EQ PUSH2 0x140 JUMPI DUP1 PUSH4 0x8DA5CB5B EQ PUSH2 0x149 JUMPI DUP1 PUSH4 0xA87A20CE EQ PUSH2 0x174 JUMPI DUP1 PUSH4 0xF0141D84 EQ PUSH2 0x187 JUMPI DUP1 PUSH4 0xFEAF968C EQ PUSH2 0x199 JUMPI PUSH1 0x0 DUP1 REVERT JUMPDEST DUP1 PUSH4 0x13AF4035 EQ PUSH2 0xAE JUMPI DUP1 PUSH4 0x313CE567 EQ PUSH2 0xC3 JUMPI DUP1 PUSH4 0x50D25BCD EQ PUSH2 0xEE JUMPI DUP1 PUSH4 0x54FD4D50 EQ PUSH2 0x105 JUMPI DUP1 PUSH4 0x668A0F02 EQ PUSH2 0x10C JUMPI JUMPDEST PUSH1 0x0 DUP1 REVERT JUMPDEST PUSH2 0xC1 PUSH2 0xBC CALLDATASIZE PUSH1 0x4 PUSH2 0x3B7 JUMP JUMPDEST PUSH2 0x1D6 JUMP JUMPDEST STOP JUMPDEST PUSH1 0x0 SLOAD PUSH2 0xD7 SWAP1 PUSH1 0x1 PUSH1 0xA0 SHL SWAP1 DIV PUSH1 0xFF AND DUP2 JUMP JUMPDEST PUSH1 0x40 MLOAD PUSH1 0xFF SWAP1 SWAP2 AND DUP2 MSTORE PUSH1 0x20 ADD JUMPDEST PUSH1 0x40 MLOAD DUP1 SWAP2 SUB SWAP1 RETURN JUMPDEST PUSH2 0xF7 PUSH1 0x1 SLOAD DUP2 JUMP JUMPDEST PUSH1 0x40 MLOAD SWAP1 DUP2 MSTORE PUSH1 0x20 ADD PUSH2 0xE5 JUMP JUMPDEST PUSH1 0x1 PUSH2 0xF7 JUMP JUMPDEST PUSH2 0xF7 PUSH1 0x3 SLOAD DUP2 JUMP JUMPDEST PUSH1 0x40 DUP1 MLOAD DUP1 DUP3 ADD DUP3 MSTORE PUSH1 0x9 DUP2 MSTORE PUSH9 0x109510C80BC81554D1 PUSH1 0xBA SHL PUSH1 0x20 DUP3 ADD MSTORE SWAP1 MLOAD PUSH2 0xE5 SWAP2 SWAP1 PUSH2 0x3E7 JUMP JUMPDEST PUSH2 0xF7 PUSH1 0x2 SLOAD DUP2 JUMP JUMPDEST PUSH1 0x0 SLOAD PUSH2 0x15C SWAP1 PUSH1 0x1 PUSH1 0x1 PUSH1 0xA0 SHL SUB AND DUP2 JUMP JUMPDEST PUSH1 0x40 MLOAD PUSH1 0x1 PUSH1 0x1 PUSH1 0xA0 SHL SUB SWAP1 SWAP2 AND DUP2 MSTORE PUSH1 0x20 ADD PUSH2 0xE5 JUMP JUMPDEST PUSH2 0xC1 PUSH2 0x182 CALLDATASIZE PUSH1 0x4 PUSH2 0x435 JUMP JUMPDEST PUSH2 0x2CA JUMP JUMPDEST PUSH1 0x0 SLOAD PUSH1 0x1 PUSH1 0xA0 SHL SWAP1 DIV PUSH1 0xFF AND PUSH2 0xD7 JUMP JUMPDEST PUSH1 0x3 SLOAD PUSH1 0x1 SLOAD PUSH1 0x2 SLOAD PUSH1 0x40 DUP1 MLOAD PUSH10 0xFFFFFFFFFFFFFFFFFFFF SWAP1 SWAP5 AND DUP1 DUP6 MSTORE PUSH1 0x20 DUP6 ADD SWAP4 SWAP1 SWAP4 MSTORE DUP4 ADD DUP2 SWAP1 MSTORE PUSH1 0x60 DUP4 ADD MSTORE PUSH1 0x80 DUP3 ADD MSTORE PUSH1 0xA0 ADD PUSH2 0xE5 JUMP JUMPDEST PUSH1 0x0 SLOAD PUSH1 0x1 PUSH1 0x1 PUSH1 0xA0 SHL SUB AND CALLER EQ PUSH2 0x209 JUMPI PUSH1 0x40 MLOAD PUSH3 0x461BCD PUSH1 0xE5 SHL DUP2 MSTORE PUSH1 0x4 ADD PUSH2 0x200 SWAP1 PUSH2 0x44E JUMP JUMPDEST PUSH1 0x40 MLOAD DUP1 SWAP2 SUB SWAP1 REVERT JUMPDEST PUSH1 0x1 PUSH1 0x1 PUSH1 0xA0 SHL SUB DUP2 AND PUSH2 0x27A JUMPI PUSH1 0x40 MLOAD PUSH3 0x461BCD PUSH1 0xE5 SHL DUP2 MSTORE PUSH1 0x20 PUSH1 0x4 DUP3 ADD MSTORE PUSH1 0x32 PUSH1 0x24 DUP3 ADD MSTORE PUSH32 0x53696D706C6541676772656761746F723A206E6577206F776E65722063616E6E PUSH1 0x44 DUP3 ADD MSTORE PUSH18 0x6F74206265207A65726F2061646472657373 PUSH1 0x70 SHL PUSH1 0x64 DUP3 ADD MSTORE PUSH1 0x84 ADD PUSH2 0x200 JUMP JUMPDEST PUSH1 0x0 DUP1 SLOAD PUSH1 0x1 PUSH1 0x1 PUSH1 0xA0 SHL SUB DUP4 DUP2 AND PUSH1 0x1 PUSH1 0x1 PUSH1 0xA0 SHL SUB NOT DUP4 AND DUP2 OR DUP5 SSTORE PUSH1 0x40 MLOAD SWAP2 SWAP1 SWAP3 AND SWAP3 DUP4 SWAP2 PUSH32 0x8BE0079C531659141344CD1FD0A4F28419497F9722A3DAAFE3B4186F6B6457E0 SWAP2 SWAP1 LOG3 POP POP JUMP JUMPDEST PUSH1 0x0 SLOAD PUSH1 0x1 PUSH1 0x1 PUSH1 0xA0 SHL SUB AND CALLER EQ PUSH2 0x2F4 JUMPI PUSH1 0x40 MLOAD PUSH3 0x461BCD PUSH1 0xE5 SHL DUP2 MSTORE PUSH1 0x4 ADD PUSH2 0x200 SWAP1 PUSH2 0x44E JUMP JUMPDEST PUSH1 0x0 DUP2 SGT PUSH2 0x356 JUMPI PUSH1 0x40 MLOAD PUSH3 0x461BCD PUSH1 0xE5 SHL DUP2 MSTORE PUSH1 0x20 PUSH1 0x4 DUP3 ADD MSTORE PUSH1 0x29 PUSH1 0x24 DUP3 ADD MSTORE PUSH32 0x53696D706C6541676772656761746F723A20616E73776572206D757374206265 PUSH1 0x44 DUP3 ADD MSTORE PUSH9 0x20706F736974697665 PUSH1 0xB8 SHL PUSH1 0x64 DUP3 ADD MSTORE PUSH1 0x84 ADD PUSH2 0x200 JUMP JUMPDEST PUSH1 0x1 PUSH1 0x3 PUSH1 0x0 DUP3 DUP3 SLOAD PUSH2 0x369 SWAP2 SWAP1 PUSH2 0x497 JUMP JUMPDEST SWAP1 SWAP2 SSTORE POP POP PUSH1 0x1 DUP2 SWAP1 SSTORE TIMESTAMP PUSH1 0x2 SSTORE PUSH1 0x3 SLOAD PUSH1 0x40 DUP1 MLOAD DUP4 DUP2 MSTORE PUSH1 0x20 DUP2 ADD SWAP3 SWAP1 SWAP3 MSTORE PUSH32 0xC379D0E412D8792CF238C6C045BAFEC46B2BDAD53A28EE4ABCE236AC6145AE84 SWAP2 ADD PUSH1 0x40 MLOAD DUP1 SWAP2 SUB SWAP1 LOG1 POP JUMP JUMPDEST PUSH1 0x0 PUSH1 0x20 DUP3 DUP5 SUB SLT ISZERO PUSH2 0x3C9 JUMPI PUSH1 0x0 DUP1 REVERT JUMPDEST DUP2 CALLDATALOAD PUSH1 0x1 PUSH1 0x1 PUSH1 0xA0 SHL SUB DUP2 AND DUP2 EQ PUSH2 0x3E0 JUMPI PUSH1 0x0 DUP1 REVERT JUMPDEST SWAP4 SWAP3 POP POP POP JUMP JUMPDEST PUSH1 0x0 PUSH1 0x20 DUP1 DUP4 MSTORE DUP4 MLOAD DUP1 DUP3 DUP6 ADD MSTORE PUSH1 0x0 JUMPDEST DUP2 DUP2 LT ISZERO PUSH2 0x414 JUMPI DUP6 DUP2 ADD DUP4 ADD MLOAD DUP6 DUP3 ADD PUSH1 0x40 ADD MSTORE DUP3 ADD PUSH2 0x3F8 JUMP JUMPDEST POP PUSH1 0x0 PUSH1 0x40 DUP3 DUP7 ADD ADD MSTORE PUSH1 0x40 PUSH1 0x1F NOT PUSH1 0x1F DUP4 ADD AND DUP6 ADD ADD SWAP3 POP POP POP SWAP3 SWAP2 POP POP JUMP JUMPDEST PUSH1 0x0 PUSH1 0x20 DUP3 DUP5 SUB SLT ISZERO PUSH2 0x447 JUMPI PUSH1 0x0 DUP1 REVERT JUMPDEST POP CALLDATALOAD SWAP2 SWAP1 POP JUMP JUMPDEST PUSH1 0x20 DUP1 DUP3 MSTORE PUSH1 0x29 SWAP1 DUP3 ADD MSTORE PUSH32 0x53696D706C6541676772656761746F723A2063616C6C6572206973206E6F7420 PUSH1 0x40 DUP3 ADD MSTORE PUSH9 0x3A34329037BBB732B9 PUSH1 0xB9 SHL PUSH1 0x60 DUP3 ADD MSTORE PUSH1 0x80 ADD SWAP1 JUMP JUMPDEST DUP1 DUP3 ADD DUP1 DUP3 GT ISZERO PUSH2 0x4B8 JUMPI PUSH4 0x4E487B71 PUSH1 0xE0 SHL PUSH1 0x0 MSTORE PUSH1 0x11 PUSH1 0x4 MSTORE PUSH1 0x24 PUSH1 0x0 REVERT JUMPDEST SWAP3 SWAP2 POP POP JUMP INVALID LOG2 PUSH5 0x6970667358 0x22 SLT KECCAK256 0xB1 PUSH23 0x382014BAC36A2557172B8F09AB50B547E86410613BEF27 0xAC COINBASE SUB 0xC0 PREVRANDAO 0xE9 LOG3 PUSH5 0x736F6C6343 STOP ADDMOD SGT STOP CALLER "},"methodIdentifiers":{"decimals()":"313ce567","description()":"7284e416","getDecimals()":"f0141d84","latestAnswer()":"50d25bcd","latestRound()":"668a0f02","latestRoundData()":"feaf968c","latestTimestamp()":"8205bf6a","owner()":"8da5cb5b","setOwner(address)":"13af4035","updateAnswer(int256)":"a87a20ce","version()":"54fd4d50"}}}}}